{
  "_format": "hh-sol-artifact-1",
  "contractName": "ArtHive",
  "sourceName": "contracts/ArtHive.sol",
  "abi": [
    {
      "inputs": [],
      "stateMutability": "nonpayable",
      "type": "constructor"
    },
    {
      "inputs": [
        {
          "internalType": "address",
          "name": "sender",
          "type": "address"
        },
        {
          "internalType": "uint256",
          "name": "tokenId",
          "type": "uint256"
        },
        {
          "internalType": "address",
          "name": "owner",
          "type": "address"
        }
      ],
      "name": "ERC721IncorrectOwner",
      "type": "error"
    },
    {
      "inputs": [
        {
          "internalType": "address",
          "name": "operator",
          "type": "address"
        },
        {
          "internalType": "uint256",
          "name": "tokenId",
          "type": "uint256"
        }
      ],
      "name": "ERC721InsufficientApproval",
      "type": "error"
    },
    {
      "inputs": [
        {
          "internalType": "address",
          "name": "approver",
          "type": "address"
        }
      ],
      "name": "ERC721InvalidApprover",
      "type": "error"
    },
    {
      "inputs": [
        {
          "internalType": "address",
          "name": "operator",
          "type": "address"
        }
      ],
      "name": "ERC721InvalidOperator",
      "type": "error"
    },
    {
      "inputs": [
        {
          "internalType": "address",
          "name": "owner",
          "type": "address"
        }
      ],
      "name": "ERC721InvalidOwner",
      "type": "error"
    },
    {
      "inputs": [
        {
          "internalType": "address",
          "name": "receiver",
          "type": "address"
        }
      ],
      "name": "ERC721InvalidReceiver",
      "type": "error"
    },
    {
      "inputs": [
        {
          "internalType": "address",
          "name": "sender",
          "type": "address"
        }
      ],
      "name": "ERC721InvalidSender",
      "type": "error"
    },
    {
      "inputs": [
        {
          "internalType": "uint256",
          "name": "tokenId",
          "type": "uint256"
        }
      ],
      "name": "ERC721NonexistentToken",
      "type": "error"
    },
    {
      "anonymous": false,
      "inputs": [
        {
          "indexed": true,
          "internalType": "address",
          "name": "owner",
          "type": "address"
        },
        {
          "indexed": true,
          "internalType": "address",
          "name": "approved",
          "type": "address"
        },
        {
          "indexed": true,
          "internalType": "uint256",
          "name": "tokenId",
          "type": "uint256"
        }
      ],
      "name": "Approval",
      "type": "event"
    },
    {
      "anonymous": false,
      "inputs": [
        {
          "indexed": true,
          "internalType": "address",
          "name": "owner",
          "type": "address"
        },
        {
          "indexed": true,
          "internalType": "address",
          "name": "operator",
          "type": "address"
        },
        {
          "indexed": false,
          "internalType": "bool",
          "name": "approved",
          "type": "bool"
        }
      ],
      "name": "ApprovalForAll",
      "type": "event"
    },
    {
      "anonymous": false,
      "inputs": [
        {
          "indexed": true,
          "internalType": "uint256",
          "name": "tokenId",
          "type": "uint256"
        },
        {
          "indexed": false,
          "internalType": "address",
          "name": "seller",
          "type": "address"
        },
        {
          "indexed": false,
          "internalType": "address",
          "name": "buyer",
          "type": "address"
        },
        {
          "indexed": false,
          "internalType": "uint256",
          "name": "price",
          "type": "uint256"
        }
      ],
      "name": "AuctionEnded",
      "type": "event"
    },
    {
      "anonymous": false,
      "inputs": [
        {
          "indexed": true,
          "internalType": "uint256",
          "name": "tokenId",
          "type": "uint256"
        },
        {
          "indexed": false,
          "internalType": "address",
          "name": "seller",
          "type": "address"
        },
        {
          "indexed": false,
          "internalType": "uint256",
          "name": "startingPrice",
          "type": "uint256"
        },
        {
          "indexed": false,
          "internalType": "uint256",
          "name": "reservePrice",
          "type": "uint256"
        },
        {
          "indexed": false,
          "internalType": "uint256",
          "name": "duration",
          "type": "uint256"
        }
      ],
      "name": "AuctionStarted",
      "type": "event"
    },
    {
      "anonymous": false,
      "inputs": [
        {
          "indexed": false,
          "internalType": "uint256",
          "name": "_fromTokenId",
          "type": "uint256"
        },
        {
          "indexed": false,
          "internalType": "uint256",
          "name": "_toTokenId",
          "type": "uint256"
        }
      ],
      "name": "BatchMetadataUpdate",
      "type": "event"
    },
    {
      "anonymous": false,
      "inputs": [
        {
          "indexed": true,
          "internalType": "uint256",
          "name": "tokenId",
          "type": "uint256"
        },
        {
          "indexed": false,
          "internalType": "address",
          "name": "seller",
          "type": "address"
        },
        {
          "indexed": false,
          "internalType": "address",
          "name": "owner",
          "type": "address"
        },
        {
          "indexed": false,
          "internalType": "uint256",
          "name": "price",
          "type": "uint256"
        },
        {
          "indexed": false,
          "internalType": "bool",
          "name": "sold",
          "type": "bool"
        }
      ],
      "name": "MarketItemCreated",
      "type": "event"
    },
    {
      "anonymous": false,
      "inputs": [
        {
          "indexed": true,
          "internalType": "uint256",
          "name": "tokenId",
          "type": "uint256"
        },
        {
          "indexed": false,
          "internalType": "address",
          "name": "seller",
          "type": "address"
        },
        {
          "indexed": false,
          "internalType": "address",
          "name": "buyer",
          "type": "address"
        },
        {
          "indexed": false,
          "internalType": "uint256",
          "name": "price",
          "type": "uint256"
        }
      ],
      "name": "MarketItemSold",
      "type": "event"
    },
    {
      "anonymous": false,
      "inputs": [
        {
          "indexed": false,
          "internalType": "uint256",
          "name": "_tokenId",
          "type": "uint256"
        }
      ],
      "name": "MetadataUpdate",
      "type": "event"
    },
    {
      "anonymous": false,
      "inputs": [
        {
          "indexed": true,
          "internalType": "uint256",
          "name": "tokenId",
          "type": "uint256"
        },
        {
          "indexed": false,
          "internalType": "uint256",
          "name": "royalty",
          "type": "uint256"
        }
      ],
      "name": "RoyaltiesUpdated",
      "type": "event"
    },
    {
      "anonymous": false,
      "inputs": [
        {
          "indexed": true,
          "internalType": "address",
          "name": "from",
          "type": "address"
        },
        {
          "indexed": true,
          "internalType": "address",
          "name": "to",
          "type": "address"
        },
        {
          "indexed": true,
          "internalType": "uint256",
          "name": "tokenId",
          "type": "uint256"
        }
      ],
      "name": "Transfer",
      "type": "event"
    },
    {
      "anonymous": false,
      "inputs": [
        {
          "indexed": true,
          "internalType": "address",
          "name": "_to",
          "type": "address"
        },
        {
          "indexed": false,
          "internalType": "uint256",
          "name": "_amount",
          "type": "uint256"
        }
      ],
      "name": "Withdrawal",
      "type": "event"
    },
    {
      "inputs": [
        {
          "internalType": "address",
          "name": "to",
          "type": "address"
        },
        {
          "internalType": "uint256",
          "name": "tokenId",
          "type": "uint256"
        }
      ],
      "name": "approve",
      "outputs": [],
      "stateMutability": "nonpayable",
      "type": "function"
    },
    {
      "inputs": [
        {
          "internalType": "address",
          "name": "owner",
          "type": "address"
        }
      ],
      "name": "balanceOf",
      "outputs": [
        {
          "internalType": "uint256",
          "name": "",
          "type": "uint256"
        }
      ],
      "stateMutability": "view",
      "type": "function"
    },
    {
      "inputs": [
        {
          "internalType": "uint256",
          "name": "tokenId",
          "type": "uint256"
        }
      ],
      "name": "createMarketSale",
      "outputs": [],
      "stateMutability": "payable",
      "type": "function"
    },
    {
      "inputs": [
        {
          "internalType": "string",
          "name": "tokenURI",
          "type": "string"
        },
        {
          "internalType": "uint256",
          "name": "price",
          "type": "uint256"
        }
      ],
      "name": "createToken",
      "outputs": [
        {
          "internalType": "uint256",
          "name": "",
          "type": "uint256"
        }
      ],
      "stateMutability": "payable",
      "type": "function"
    },
    {
      "inputs": [
        {
          "internalType": "uint256",
          "name": "tokenId",
          "type": "uint256"
        }
      ],
      "name": "endAuction",
      "outputs": [],
      "stateMutability": "nonpayable",
      "type": "function"
    },
    {
      "inputs": [],
      "name": "fetchItemsListed",
      "outputs": [
        {
          "components": [
            {
              "internalType": "uint256",
              "name": "tokenId",
              "type": "uint256"
            },
            {
              "internalType": "address payable",
              "name": "seller",
              "type": "address"
            },
            {
              "internalType": "address payable",
              "name": "owner",
              "type": "address"
            },
            {
              "internalType": "uint256",
              "name": "price",
              "type": "uint256"
            },
            {
              "internalType": "bool",
              "name": "sold",
              "type": "bool"
            }
          ],
          "internalType": "struct ArtHive.MarketItem[]",
          "name": "",
          "type": "tuple[]"
        }
      ],
      "stateMutability": "view",
      "type": "function"
    },
    {
      "inputs": [],
      "name": "fetchMarketItems",
      "outputs": [
        {
          "components": [
            {
              "internalType": "uint256",
              "name": "tokenId",
              "type": "uint256"
            },
            {
              "internalType": "address payable",
              "name": "seller",
              "type": "address"
            },
            {
              "internalType": "address payable",
              "name": "owner",
              "type": "address"
            },
            {
              "internalType": "uint256",
              "name": "price",
              "type": "uint256"
            },
            {
              "internalType": "bool",
              "name": "sold",
              "type": "bool"
            }
          ],
          "internalType": "struct ArtHive.MarketItem[]",
          "name": "",
          "type": "tuple[]"
        }
      ],
      "stateMutability": "view",
      "type": "function"
    },
    {
      "inputs": [],
      "name": "fetchMyNFTs",
      "outputs": [
        {
          "components": [
            {
              "internalType": "uint256",
              "name": "tokenId",
              "type": "uint256"
            },
            {
              "internalType": "address payable",
              "name": "seller",
              "type": "address"
            },
            {
              "internalType": "address payable",
              "name": "owner",
              "type": "address"
            },
            {
              "internalType": "uint256",
              "name": "price",
              "type": "uint256"
            },
            {
              "internalType": "bool",
              "name": "sold",
              "type": "bool"
            }
          ],
          "internalType": "struct ArtHive.MarketItem[]",
          "name": "",
          "type": "tuple[]"
        }
      ],
      "stateMutability": "view",
      "type": "function"
    },
    {
      "inputs": [
        {
          "internalType": "uint256",
          "name": "tokenId",
          "type": "uint256"
        }
      ],
      "name": "getApproved",
      "outputs": [
        {
          "internalType": "address",
          "name": "",
          "type": "address"
        }
      ],
      "stateMutability": "view",
      "type": "function"
    },
    {
      "inputs": [],
      "name": "getListingPrice",
      "outputs": [
        {
          "internalType": "uint256",
          "name": "",
          "type": "uint256"
        }
      ],
      "stateMutability": "view",
      "type": "function"
    },
    {
      "inputs": [
        {
          "internalType": "address",
          "name": "owner",
          "type": "address"
        },
        {
          "internalType": "address",
          "name": "operator",
          "type": "address"
        }
      ],
      "name": "isApprovedForAll",
      "outputs": [
        {
          "internalType": "bool",
          "name": "",
          "type": "bool"
        }
      ],
      "stateMutability": "view",
      "type": "function"
    },
    {
      "inputs": [],
      "name": "listingPrice",
      "outputs": [
        {
          "internalType": "uint256",
          "name": "",
          "type": "uint256"
        }
      ],
      "stateMutability": "view",
      "type": "function"
    },
    {
      "inputs": [],
      "name": "name",
      "outputs": [
        {
          "internalType": "string",
          "name": "",
          "type": "string"
        }
      ],
      "stateMutability": "view",
      "type": "function"
    },
    {
      "inputs": [],
      "name": "owner",
      "outputs": [
        {
          "internalType": "address payable",
          "name": "",
          "type": "address"
        }
      ],
      "stateMutability": "view",
      "type": "function"
    },
    {
      "inputs": [
        {
          "internalType": "uint256",
          "name": "tokenId",
          "type": "uint256"
        }
      ],
      "name": "ownerOf",
      "outputs": [
        {
          "internalType": "address",
          "name": "",
          "type": "address"
        }
      ],
      "stateMutability": "view",
      "type": "function"
    },
    {
      "inputs": [
        {
          "internalType": "uint256",
          "name": "tokenId",
          "type": "uint256"
        },
        {
          "internalType": "uint256",
          "name": "price",
          "type": "uint256"
        }
      ],
      "name": "reSellToken",
      "outputs": [],
      "stateMutability": "payable",
      "type": "function"
    },
    {
      "inputs": [
        {
          "internalType": "address",
          "name": "from",
          "type": "address"
        },
        {
          "internalType": "address",
          "name": "to",
          "type": "address"
        },
        {
          "internalType": "uint256",
          "name": "tokenId",
          "type": "uint256"
        }
      ],
      "name": "safeTransferFrom",
      "outputs": [],
      "stateMutability": "nonpayable",
      "type": "function"
    },
    {
      "inputs": [
        {
          "internalType": "address",
          "name": "from",
          "type": "address"
        },
        {
          "internalType": "address",
          "name": "to",
          "type": "address"
        },
        {
          "internalType": "uint256",
          "name": "tokenId",
          "type": "uint256"
        },
        {
          "internalType": "bytes",
          "name": "data",
          "type": "bytes"
        }
      ],
      "name": "safeTransferFrom",
      "outputs": [],
      "stateMutability": "nonpayable",
      "type": "function"
    },
    {
      "inputs": [
        {
          "internalType": "address",
          "name": "operator",
          "type": "address"
        },
        {
          "internalType": "bool",
          "name": "approved",
          "type": "bool"
        }
      ],
      "name": "setApprovalForAll",
      "outputs": [],
      "stateMutability": "nonpayable",
      "type": "function"
    },
    {
      "inputs": [
        {
          "internalType": "uint256",
          "name": "tokenId",
          "type": "uint256"
        },
        {
          "internalType": "uint256",
          "name": "royalty",
          "type": "uint256"
        }
      ],
      "name": "setRoyalty",
      "outputs": [],
      "stateMutability": "nonpayable",
      "type": "function"
    },
    {
      "inputs": [
        {
          "internalType": "uint256",
          "name": "tokenId",
          "type": "uint256"
        },
        {
          "internalType": "uint256",
          "name": "startingPrice",
          "type": "uint256"
        },
        {
          "internalType": "uint256",
          "name": "reservePrice",
          "type": "uint256"
        },
        {
          "internalType": "uint256",
          "name": "duration",
          "type": "uint256"
        }
      ],
      "name": "startAuction",
      "outputs": [],
      "stateMutability": "nonpayable",
      "type": "function"
    },
    {
      "inputs": [
        {
          "internalType": "bytes4",
          "name": "interfaceId",
          "type": "bytes4"
        }
      ],
      "name": "supportsInterface",
      "outputs": [
        {
          "internalType": "bool",
          "name": "",
          "type": "bool"
        }
      ],
      "stateMutability": "view",
      "type": "function"
    },
    {
      "inputs": [],
      "name": "symbol",
      "outputs": [
        {
          "internalType": "string",
          "name": "",
          "type": "string"
        }
      ],
      "stateMutability": "view",
      "type": "function"
    },
    {
      "inputs": [
        {
          "internalType": "uint256",
          "name": "",
          "type": "uint256"
        }
      ],
      "name": "tokenRoyalties",
      "outputs": [
        {
          "internalType": "uint256",
          "name": "",
          "type": "uint256"
        }
      ],
      "stateMutability": "view",
      "type": "function"
    },
    {
      "inputs": [
        {
          "internalType": "uint256",
          "name": "tokenId",
          "type": "uint256"
        }
      ],
      "name": "tokenURI",
      "outputs": [
        {
          "internalType": "string",
          "name": "",
          "type": "string"
        }
      ],
      "stateMutability": "view",
      "type": "function"
    },
    {
      "inputs": [
        {
          "internalType": "address",
          "name": "from",
          "type": "address"
        },
        {
          "internalType": "address",
          "name": "to",
          "type": "address"
        },
        {
          "internalType": "uint256",
          "name": "tokenId",
          "type": "uint256"
        }
      ],
      "name": "transferFrom",
      "outputs": [],
      "stateMutability": "nonpayable",
      "type": "function"
    },
    {
      "inputs": [
        {
          "internalType": "uint256",
          "name": "_listingPrice",
          "type": "uint256"
        }
      ],
      "name": "updateListingPrice",
      "outputs": [],
      "stateMutability": "payable",
      "type": "function"
    },
    {
      "inputs": [
        {
          "internalType": "uint256",
          "name": "_amount",
          "type": "uint256"
        }
      ],
      "name": "withdraw",
      "outputs": [],
      "stateMutability": "nonpayable",
      "type": "function"
    }
  ],
  "bytecode": "0x60806040526608e1bc9bf040006009553480156200001c57600080fd5b506040518060400160405280600781526020017f41525448495645000000000000000000000000000000000000000000000000008152506040518060400160405280600581526020017f544849564500000000000000000000000000000000000000000000000000000081525081600090816200009a919062000370565b508060019081620000ac919062000370565b50505033600a60006101000a81548173ffffffffffffffffffffffffffffffffffffffff021916908373ffffffffffffffffffffffffffffffffffffffff16021790555062000457565b600081519050919050565b7f4e487b7100000000000000000000000000000000000000000000000000000000600052604160045260246000fd5b7f4e487b7100000000000000000000000000000000000000000000000000000000600052602260045260246000fd5b600060028204905060018216806200017857607f821691505b6020821081036200018e576200018d62000130565b5b50919050565b60008190508160005260206000209050919050565b60006020601f8301049050919050565b600082821b905092915050565b600060088302620001f87fffffffffffffffffffffffffffffffffffffffffffffffffffffffffffffffff82620001b9565b620002048683620001b9565b95508019841693508086168417925050509392505050565b6000819050919050565b6000819050919050565b6000620002516200024b62000245846200021c565b62000226565b6200021c565b9050919050565b6000819050919050565b6200026d8362000230565b620002856200027c8262000258565b848454620001c6565b825550505050565b600090565b6200029c6200028d565b620002a981848462000262565b505050565b5b81811015620002d157620002c560008262000292565b600181019050620002af565b5050565b601f8211156200032057620002ea8162000194565b620002f584620001a9565b8101602085101562000305578190505b6200031d6200031485620001a9565b830182620002ae565b50505b505050565b600082821c905092915050565b6000620003456000198460080262000325565b1980831691505092915050565b600062000360838362000332565b9150826002028217905092915050565b6200037b82620000f6565b67ffffffffffffffff81111562000397576200039662000101565b5b620003a382546200015f565b620003b0828285620002d5565b600060209050601f831160018114620003e85760008415620003d3578287015190505b620003df858262000352565b8655506200044f565b601f198416620003f88662000194565b60005b828110156200042257848901518255600182019150602085019450602081019050620003fb565b868310156200044257848901516200043e601f89168262000332565b8355505b6001600288020188555050505b505050505050565b6143b580620004676000396000f3fe6080604052600436106101b75760003560e01c806385535b25116100ec578063b88d4fde1161008a578063c78f19f911610064578063c78f19f9146105d2578063c87b56dd146105fd578063cb53b24b1461063a578063e985e9c514610677576101b7565b8063b88d4fde14610564578063b9a2de3a1461058d578063be9af536146105b6576101b7565b8063933a6f0d116100c6578063933a6f0d146104cb57806395d89b41146104f4578063a22cb4651461051f578063ae677aa314610548576101b7565b806385535b251461045b5780638d2c4488146104775780638da5cb5b146104a0576101b7565b806323b872dd1161015957806345f8fa801161013357806345f8fa80146103865780636352211e146103b157806370a08231146103ee57806372b3b6201461042b576101b7565b806323b872dd1461030b5780632e1a7d4d1461033457806342842e0e1461035d576101b7565b8063095ea7b311610195578063095ea7b3146102615780630f08efe01461028a57806312e85585146102b5578063202e3740146102e0576101b7565b806301ffc9a7146101bc57806306fdde03146101f9578063081812fc14610224575b600080fd5b3480156101c857600080fd5b506101e360048036038101906101de9190612ffe565b6106b4565b6040516101f09190613046565b60405180910390f35b34801561020557600080fd5b5061020e610715565b60405161021b91906130f1565b60405180910390f35b34801561023057600080fd5b5061024b60048036038101906102469190613149565b6107a7565b60405161025891906131b7565b60405180910390f35b34801561026d57600080fd5b50610288600480360381019061028391906131fe565b6107c3565b005b34801561029657600080fd5b5061029f6107d9565b6040516102ac9190613394565b60405180910390f35b3480156102c157600080fd5b506102ca6109c9565b6040516102d791906133c5565b60405180910390f35b3480156102ec57600080fd5b506102f56109d3565b6040516103029190613394565b60405180910390f35b34801561031757600080fd5b50610332600480360381019061032d91906133e0565b610c8c565b005b34801561034057600080fd5b5061035b60048036038101906103569190613149565b610d8e565b005b34801561036957600080fd5b50610384600480360381019061037f91906133e0565b610f3d565b005b34801561039257600080fd5b5061039b610f5d565b6040516103a89190613394565b60405180910390f35b3480156103bd57600080fd5b506103d860048036038101906103d39190613149565b611216565b6040516103e591906131b7565b60405180910390f35b3480156103fa57600080fd5b5061041560048036038101906104109190613433565b611228565b60405161042291906133c5565b60405180910390f35b61044560048036038101906104409190613595565b6112e2565b60405161045291906133c5565b60405180910390f35b610475600480360381019061047091906135f1565b61132b565b005b34801561048357600080fd5b5061049e60048036038101906104999190613631565b61152e565b005b3480156104ac57600080fd5b506104b5611572565b6040516104c291906136a7565b60405180910390f35b3480156104d757600080fd5b506104f260048036038101906104ed91906135f1565b611598565b005b34801561050057600080fd5b506105096116c1565b60405161051691906130f1565b60405180910390f35b34801561052b57600080fd5b50610546600480360381019061054191906136ee565b611753565b005b610562600480360381019061055d9190613149565b611769565b005b34801561057057600080fd5b5061058b600480360381019061058691906137cf565b611803565b005b34801561059957600080fd5b506105b460048036038101906105af9190613149565b611820565b005b6105d060048036038101906105cb9190613149565b611860565b005b3480156105de57600080fd5b506105e7611b18565b6040516105f491906133c5565b60405180910390f35b34801561060957600080fd5b50610624600480360381019061061f9190613149565b611b1e565b60405161063191906130f1565b60405180910390f35b34801561064657600080fd5b50610661600480360381019061065c9190613149565b611c31565b60405161066e91906133c5565b60405180910390f35b34801561068357600080fd5b5061069e60048036038101906106999190613852565b611c49565b6040516106ab9190613046565b60405180910390f35b6000634906490660e01b7bffffffffffffffffffffffffffffffffffffffffffffffffffffffff1916827bffffffffffffffffffffffffffffffffffffffffffffffffffffffff1916148061070e575061070d82611cdd565b5b9050919050565b606060008054610724906138c1565b80601f0160208091040260200160405190810160405280929190818152602001828054610750906138c1565b801561079d5780601f106107725761010080835404028352916020019161079d565b820191906000526020600020905b81548152906001019060200180831161078057829003601f168201915b5050505050905090565b60006107b282611dbf565b506107bc82611e47565b9050919050565b6107d582826107d0611e84565b611e8c565b5050565b60606000600754905060006008546007546107f49190613921565b90506000808267ffffffffffffffff8111156108135761081261346a565b5b60405190808252806020026020018201604052801561084c57816020015b610839612f35565b8152602001906001900390816108315790505b5090506000600190505b8481116109be57600b600082815260200190815260200160002060040160009054906101000a900460ff166109ab57600b60008281526020019081526020016000206040518060a0016040529081600082015481526020016001820160009054906101000a900473ffffffffffffffffffffffffffffffffffffffff1673ffffffffffffffffffffffffffffffffffffffff1673ffffffffffffffffffffffffffffffffffffffff1681526020016002820160009054906101000a900473ffffffffffffffffffffffffffffffffffffffff1673ffffffffffffffffffffffffffffffffffffffff1673ffffffffffffffffffffffffffffffffffffffff168152602001600382015481526020016004820160009054906101000a900460ff16151515158152505082848151811061099157610990613955565b5b602002602001018190525082806109a790613984565b9350505b80806109b690613984565b915050610856565b508094505050505090565b6000600954905090565b6060600060075490506000806000600190505b838111610a78573373ffffffffffffffffffffffffffffffffffffffff16600b600083815260200190815260200160002060020160009054906101000a900473ffffffffffffffffffffffffffffffffffffffff1673ffffffffffffffffffffffffffffffffffffffff1603610a65578280610a6190613984565b9350505b8080610a7090613984565b9150506109e6565b5060008267ffffffffffffffff811115610a9557610a9461346a565b5b604051908082528060200260200182016040528015610ace57816020015b610abb612f35565b815260200190600190039081610ab35790505b5090506000600190505b848111610c81573373ffffffffffffffffffffffffffffffffffffffff16600b600083815260200190815260200160002060020160009054906101000a900473ffffffffffffffffffffffffffffffffffffffff1673ffffffffffffffffffffffffffffffffffffffff1603610c6e57600b60008281526020019081526020016000206040518060a0016040529081600082015481526020016001820160009054906101000a900473ffffffffffffffffffffffffffffffffffffffff1673ffffffffffffffffffffffffffffffffffffffff1673ffffffffffffffffffffffffffffffffffffffff1681526020016002820160009054906101000a900473ffffffffffffffffffffffffffffffffffffffff1673ffffffffffffffffffffffffffffffffffffffff1673ffffffffffffffffffffffffffffffffffffffff168152602001600382015481526020016004820160009054906101000a900460ff161515151581525050828481518110610c5457610c53613955565b5b60200260200101819052508280610c6a90613984565b9350505b8080610c7990613984565b915050610ad8565b508094505050505090565b600073ffffffffffffffffffffffffffffffffffffffff168273ffffffffffffffffffffffffffffffffffffffff1603610cfe5760006040517f64a0ae92000000000000000000000000000000000000000000000000000000008152600401610cf591906131b7565b60405180910390fd5b6000610d128383610d0d611e84565b611e9e565b90508373ffffffffffffffffffffffffffffffffffffffff168173ffffffffffffffffffffffffffffffffffffffff1614610d88578382826040517f64283d7b000000000000000000000000000000000000000000000000000000008152600401610d7f939291906139cc565b60405180910390fd5b50505050565b600a60009054906101000a900473ffffffffffffffffffffffffffffffffffffffff1673ffffffffffffffffffffffffffffffffffffffff163373ffffffffffffffffffffffffffffffffffffffff1614610e1e576040517f08c379a0000000000000000000000000000000000000000000000000000000008152600401610e1590613a75565b60405180910390fd5b47811115610e61576040517f08c379a0000000000000000000000000000000000000000000000000000000008152600401610e5890613ae1565b60405180910390fd5b600a60009054906101000a900473ffffffffffffffffffffffffffffffffffffffff1673ffffffffffffffffffffffffffffffffffffffff166108fc829081150290604051600060405180830381858888f19350505050158015610ec9573d6000803e3d6000fd5b50600a60009054906101000a900473ffffffffffffffffffffffffffffffffffffffff1673ffffffffffffffffffffffffffffffffffffffff167f7fcf532c15f0a6db0bd6d0e038bea71d30d808c7d98cb3bf7268a95bf5081b6582604051610f3291906133c5565b60405180910390a250565b610f5883838360405180602001604052806000815250611803565b505050565b6060600060075490506000806000600190505b838111611002573373ffffffffffffffffffffffffffffffffffffffff16600b600083815260200190815260200160002060010160009054906101000a900473ffffffffffffffffffffffffffffffffffffffff1673ffffffffffffffffffffffffffffffffffffffff1603610fef578280610feb90613984565b9350505b8080610ffa90613984565b915050610f70565b5060008267ffffffffffffffff81111561101f5761101e61346a565b5b60405190808252806020026020018201604052801561105857816020015b611045612f35565b81526020019060019003908161103d5790505b5090506000600190505b84811161120b573373ffffffffffffffffffffffffffffffffffffffff16600b600083815260200190815260200160002060010160009054906101000a900473ffffffffffffffffffffffffffffffffffffffff1673ffffffffffffffffffffffffffffffffffffffff16036111f857600b60008281526020019081526020016000206040518060a0016040529081600082015481526020016001820160009054906101000a900473ffffffffffffffffffffffffffffffffffffffff1673ffffffffffffffffffffffffffffffffffffffff1673ffffffffffffffffffffffffffffffffffffffff1681526020016002820160009054906101000a900473ffffffffffffffffffffffffffffffffffffffff1673ffffffffffffffffffffffffffffffffffffffff1673ffffffffffffffffffffffffffffffffffffffff168152602001600382015481526020016004820160009054906101000a900460ff1615151515815250508284815181106111de576111dd613955565b5b602002602001018190525082806111f490613984565b9350505b808061120390613984565b915050611062565b508094505050505090565b600061122182611dbf565b9050919050565b60008073ffffffffffffffffffffffffffffffffffffffff168273ffffffffffffffffffffffffffffffffffffffff160361129b5760006040517f89c62b6400000000000000000000000000000000000000000000000000000000815260040161129291906131b7565b60405180910390fd5b600360008373ffffffffffffffffffffffffffffffffffffffff1673ffffffffffffffffffffffffffffffffffffffff168152602001908152602001600020549050919050565b6000600760008154809291906112f790613984565b91905055506000600754905061130d33826120b8565b61131781856121b1565b611321818461220d565b8091505092915050565b3373ffffffffffffffffffffffffffffffffffffffff16600b600084815260200190815260200160002060020160009054906101000a900473ffffffffffffffffffffffffffffffffffffffff1673ffffffffffffffffffffffffffffffffffffffff16146113cf576040517f08c379a00000000000000000000000000000000000000000000000000000000081526004016113c690613b4d565b60405180910390fd5b6009543414611413576040517f08c379a000000000000000000000000000000000000000000000000000000000815260040161140a90613bdf565b60405180910390fd5b6000600b600084815260200190815260200160002060040160006101000a81548160ff02191690831515021790555080600b60008481526020019081526020016000206003018190555033600b600084815260200190815260200160002060010160006101000a81548173ffffffffffffffffffffffffffffffffffffffff021916908373ffffffffffffffffffffffffffffffffffffffff16021790555030600b600084815260200190815260200160002060020160006101000a81548173ffffffffffffffffffffffffffffffffffffffff021916908373ffffffffffffffffffffffffffffffffffffffff1602179055506008600081548092919061151a90613bff565b919050555061152a333084612410565b5050565b837f891c95c01123dab4c2e9f5730be4341f0389880525f5d7c2a645a77555c27ff7338585856040516115649493929190613c28565b60405180910390a250505050565b600a60009054906101000a900473ffffffffffffffffffffffffffffffffffffffff1681565b600a60009054906101000a900473ffffffffffffffffffffffffffffffffffffffff1673ffffffffffffffffffffffffffffffffffffffff163373ffffffffffffffffffffffffffffffffffffffff1614611628576040517f08c379a000000000000000000000000000000000000000000000000000000000815260040161161f90613a75565b60405180910390fd5b61271081111561166d576040517f08c379a000000000000000000000000000000000000000000000000000000000815260040161166490613cdf565b60405180910390fd5b80600c600084815260200190815260200160002081905550817f7ada5e87cc59c60275b60c7c0a0b0967c66da0c7496b6603d6dba99cd00ebd29826040516116b591906133c5565b60405180910390a25050565b6060600180546116d0906138c1565b80601f01602080910402602001604051908101604052809291908181526020018280546116fc906138c1565b80156117495780601f1061171e57610100808354040283529160200191611749565b820191906000526020600020905b81548152906001019060200180831161172c57829003601f168201915b5050505050905090565b61176561175e611e84565b838361257d565b5050565b600a60009054906101000a900473ffffffffffffffffffffffffffffffffffffffff1673ffffffffffffffffffffffffffffffffffffffff163373ffffffffffffffffffffffffffffffffffffffff16146117f9576040517f08c379a00000000000000000000000000000000000000000000000000000000081526004016117f090613a75565b60405180910390fd5b8060098190555050565b61180e848484610c8c565b61181a848484846126ec565b50505050565b807f1569802994a84674f75331b5081a75eefaac9d79eb336ae1544ed0aae49cb9383360008060405161185593929190613d44565b60405180910390a250565b6000600b60008381526020019081526020016000206003015490508034146118bd576040517f08c379a00000000000000000000000000000000000000000000000000000000081526004016118b490613ded565b60405180910390fd5b33600b600084815260200190815260200160002060020160006101000a81548173ffffffffffffffffffffffffffffffffffffffff021916908373ffffffffffffffffffffffffffffffffffffffff1602179055506001600b600084815260200190815260200160002060040160006101000a81548160ff0219169083151502179055506000600b600084815260200190815260200160002060010160006101000a81548173ffffffffffffffffffffffffffffffffffffffff021916908373ffffffffffffffffffffffffffffffffffffffff160217905550600860008154809291906119aa90613984565b91905055506119ba303384612410565b817f150ffca547cf855e7fcf5daa82e41c6523b5fb2c8b1309bbb6cf2f87c6ae5a31600b600085815260200190815260200160002060010160009054906101000a900473ffffffffffffffffffffffffffffffffffffffff163384604051611a2493929190613e62565b60405180910390a2600a60009054906101000a900473ffffffffffffffffffffffffffffffffffffffff1673ffffffffffffffffffffffffffffffffffffffff166108fc6009549081150290604051600060405180830381858888f19350505050158015611a96573d6000803e3d6000fd5b50600b600083815260200190815260200160002060010160009054906101000a900473ffffffffffffffffffffffffffffffffffffffff1673ffffffffffffffffffffffffffffffffffffffff166108fc349081150290604051600060405180830381858888f19350505050158015611b13573d6000803e3d6000fd5b505050565b60095481565b6060611b2982611dbf565b506000600660008481526020019081526020016000208054611b4a906138c1565b80601f0160208091040260200160405190810160405280929190818152602001828054611b76906138c1565b8015611bc35780601f10611b9857610100808354040283529160200191611bc3565b820191906000526020600020905b815481529060010190602001808311611ba657829003601f168201915b505050505090506000611bd46128a3565b90506000815103611be9578192505050611c2c565b600082511115611c1e578082604051602001611c06929190613ed5565b60405160208183030381529060405292505050611c2c565b611c27846128ba565b925050505b919050565b600c6020528060005260406000206000915090505481565b6000600560008473ffffffffffffffffffffffffffffffffffffffff1673ffffffffffffffffffffffffffffffffffffffff16815260200190815260200160002060008373ffffffffffffffffffffffffffffffffffffffff1673ffffffffffffffffffffffffffffffffffffffff16815260200190815260200160002060009054906101000a900460ff16905092915050565b60007f80ac58cd000000000000000000000000000000000000000000000000000000007bffffffffffffffffffffffffffffffffffffffffffffffffffffffff1916827bffffffffffffffffffffffffffffffffffffffffffffffffffffffff19161480611da857507f5b5e139f000000000000000000000000000000000000000000000000000000007bffffffffffffffffffffffffffffffffffffffffffffffffffffffff1916827bffffffffffffffffffffffffffffffffffffffffffffffffffffffff1916145b80611db85750611db782612923565b5b9050919050565b600080611dcb8361298d565b9050600073ffffffffffffffffffffffffffffffffffffffff168173ffffffffffffffffffffffffffffffffffffffff1603611e3e57826040517f7e273289000000000000000000000000000000000000000000000000000000008152600401611e3591906133c5565b60405180910390fd5b80915050919050565b60006004600083815260200190815260200160002060009054906101000a900473ffffffffffffffffffffffffffffffffffffffff169050919050565b600033905090565b611e9983838360016129ca565b505050565b600080611eaa8461298d565b9050600073ffffffffffffffffffffffffffffffffffffffff168373ffffffffffffffffffffffffffffffffffffffff1614611eec57611eeb818486612b8f565b5b600073ffffffffffffffffffffffffffffffffffffffff168173ffffffffffffffffffffffffffffffffffffffff1614611f7d57611f2e6000856000806129ca565b6001600360008373ffffffffffffffffffffffffffffffffffffffff1673ffffffffffffffffffffffffffffffffffffffff168152602001908152602001600020600082825403925050819055505b600073ffffffffffffffffffffffffffffffffffffffff168573ffffffffffffffffffffffffffffffffffffffff1614612000576001600360008773ffffffffffffffffffffffffffffffffffffffff1673ffffffffffffffffffffffffffffffffffffffff168152602001908152602001600020600082825401925050819055505b846002600086815260200190815260200160002060006101000a81548173ffffffffffffffffffffffffffffffffffffffff021916908373ffffffffffffffffffffffffffffffffffffffff160217905550838573ffffffffffffffffffffffffffffffffffffffff168273ffffffffffffffffffffffffffffffffffffffff167fddf252ad1be2c89b69c2b068fc378daa952ba7f163c4a11628f55a4df523b3ef60405160405180910390a4809150509392505050565b600073ffffffffffffffffffffffffffffffffffffffff168273ffffffffffffffffffffffffffffffffffffffff160361212a5760006040517f64a0ae9200000000000000000000000000000000000000000000000000000000815260040161212191906131b7565b60405180910390fd5b600061213883836000611e9e565b9050600073ffffffffffffffffffffffffffffffffffffffff168173ffffffffffffffffffffffffffffffffffffffff16146121ac5760006040517f73c6ac6e0000000000000000000000000000000000000000000000000000000081526004016121a391906131b7565b60405180910390fd5b505050565b806006600084815260200190815260200160002090816121d1919061409b565b507ff8e1a15aba9398e019f0b49df1a4fde98ee17ae345cb5f6b5e2c27f5033e8ce78260405161220191906133c5565b60405180910390a15050565b60008111612250576040517f08c379a0000000000000000000000000000000000000000000000000000000008152600401612247906141df565b60405180910390fd5b6009543414612294576040517f08c379a000000000000000000000000000000000000000000000000000000000815260040161228b90613bdf565b60405180910390fd5b6040518060a001604052808381526020013373ffffffffffffffffffffffffffffffffffffffff1681526020013073ffffffffffffffffffffffffffffffffffffffff16815260200182815260200160001515815250600b60008481526020019081526020016000206000820151816000015560208201518160010160006101000a81548173ffffffffffffffffffffffffffffffffffffffff021916908373ffffffffffffffffffffffffffffffffffffffff16021790555060408201518160020160006101000a81548173ffffffffffffffffffffffffffffffffffffffff021916908373ffffffffffffffffffffffffffffffffffffffff1602179055506060820151816003015560808201518160040160006101000a81548160ff0219169083151502179055509050506123cd333084612410565b817fb640004f1d14576d0c209e240cad0410e0d8c0c33a09375861fbadae2588a98d333084600060405161240494939291906141ff565b60405180910390a25050565b600073ffffffffffffffffffffffffffffffffffffffff168273ffffffffffffffffffffffffffffffffffffffff16036124825760006040517f64a0ae9200000000000000000000000000000000000000000000000000000000815260040161247991906131b7565b60405180910390fd5b600061249083836000611e9e565b9050600073ffffffffffffffffffffffffffffffffffffffff168173ffffffffffffffffffffffffffffffffffffffff160361250357816040517f7e2732890000000000000000000000000000000000000000000000000000000081526004016124fa91906133c5565b60405180910390fd5b8373ffffffffffffffffffffffffffffffffffffffff168173ffffffffffffffffffffffffffffffffffffffff1614612577578382826040517f64283d7b00000000000000000000000000000000000000000000000000000000815260040161256e939291906139cc565b60405180910390fd5b50505050565b600073ffffffffffffffffffffffffffffffffffffffff168273ffffffffffffffffffffffffffffffffffffffff16036125ee57816040517f5b08ba180000000000000000000000000000000000000000000000000000000081526004016125e591906131b7565b60405180910390fd5b80600560008573ffffffffffffffffffffffffffffffffffffffff1673ffffffffffffffffffffffffffffffffffffffff16815260200190815260200160002060008473ffffffffffffffffffffffffffffffffffffffff1673ffffffffffffffffffffffffffffffffffffffff16815260200190815260200160002060006101000a81548160ff0219169083151502179055508173ffffffffffffffffffffffffffffffffffffffff168373ffffffffffffffffffffffffffffffffffffffff167f17307eab39ab6107e8899845ad3d59bd9653f200f220920489ca2b5937696c31836040516126df9190613046565b60405180910390a3505050565b60008373ffffffffffffffffffffffffffffffffffffffff163b111561289d578273ffffffffffffffffffffffffffffffffffffffff1663150b7a02612730611e84565b8685856040518563ffffffff1660e01b81526004016127529493929190614299565b6020604051808303816000875af192505050801561278e57506040513d601f19601f8201168201806040525081019061278b91906142fa565b60015b612812573d80600081146127be576040519150601f19603f3d011682016040523d82523d6000602084013e6127c3565b606091505b50600081510361280a57836040517f64a0ae9200000000000000000000000000000000000000000000000000000000815260040161280191906131b7565b60405180910390fd5b805181602001fd5b63150b7a0260e01b7bffffffffffffffffffffffffffffffffffffffffffffffffffffffff1916817bffffffffffffffffffffffffffffffffffffffffffffffffffffffff19161461289b57836040517f64a0ae9200000000000000000000000000000000000000000000000000000000815260040161289291906131b7565b60405180910390fd5b505b50505050565b606060405180602001604052806000815250905090565b60606128c582611dbf565b5060006128d06128a3565b905060008151116128f0576040518060200160405280600081525061291b565b806128fa84612c53565b60405160200161290b929190613ed5565b6040516020818303038152906040525b915050919050565b60007f01ffc9a7000000000000000000000000000000000000000000000000000000007bffffffffffffffffffffffffffffffffffffffffffffffffffffffff1916827bffffffffffffffffffffffffffffffffffffffffffffffffffffffff1916149050919050565b60006002600083815260200190815260200160002060009054906101000a900473ffffffffffffffffffffffffffffffffffffffff169050919050565b8080612a035750600073ffffffffffffffffffffffffffffffffffffffff168273ffffffffffffffffffffffffffffffffffffffff1614155b15612b37576000612a1384611dbf565b9050600073ffffffffffffffffffffffffffffffffffffffff168373ffffffffffffffffffffffffffffffffffffffff1614158015612a7e57508273ffffffffffffffffffffffffffffffffffffffff168173ffffffffffffffffffffffffffffffffffffffff1614155b8015612a915750612a8f8184611c49565b155b15612ad357826040517fa9fbf51f000000000000000000000000000000000000000000000000000000008152600401612aca91906131b7565b60405180910390fd5b8115612b3557838573ffffffffffffffffffffffffffffffffffffffff168273ffffffffffffffffffffffffffffffffffffffff167f8c5be1e5ebec7d5bd14f71427d1e84f3dd0314c0f7b2291e5b200ac8c7c3b92560405160405180910390a45b505b836004600085815260200190815260200160002060006101000a81548173ffffffffffffffffffffffffffffffffffffffff021916908373ffffffffffffffffffffffffffffffffffffffff16021790555050505050565b612b9a838383612d21565b612c4e57600073ffffffffffffffffffffffffffffffffffffffff168373ffffffffffffffffffffffffffffffffffffffff1603612c0f57806040517f7e273289000000000000000000000000000000000000000000000000000000008152600401612c0691906133c5565b60405180910390fd5b81816040517f177e802f000000000000000000000000000000000000000000000000000000008152600401612c45929190614327565b60405180910390fd5b505050565b606060006001612c6284612de2565b01905060008167ffffffffffffffff811115612c8157612c8061346a565b5b6040519080825280601f01601f191660200182016040528015612cb35781602001600182028036833780820191505090505b509050600082602001820190505b600115612d16578080600190039150507f3031323334353637383961626364656600000000000000000000000000000000600a86061a8153600a8581612d0a57612d09614350565b5b04945060008503612cc1575b819350505050919050565b60008073ffffffffffffffffffffffffffffffffffffffff168373ffffffffffffffffffffffffffffffffffffffff1614158015612dd957508273ffffffffffffffffffffffffffffffffffffffff168473ffffffffffffffffffffffffffffffffffffffff161480612d9a5750612d998484611c49565b5b80612dd857508273ffffffffffffffffffffffffffffffffffffffff16612dc083611e47565b73ffffffffffffffffffffffffffffffffffffffff16145b5b90509392505050565b600080600090507a184f03e93ff9f4daa797ed6e38ed64bf6a1f0100000000000000008310612e40577a184f03e93ff9f4daa797ed6e38ed64bf6a1f0100000000000000008381612e3657612e35614350565b5b0492506040810190505b6d04ee2d6d415b85acef81000000008310612e7d576d04ee2d6d415b85acef81000000008381612e7357612e72614350565b5b0492506020810190505b662386f26fc100008310612eac57662386f26fc100008381612ea257612ea1614350565b5b0492506010810190505b6305f5e1008310612ed5576305f5e1008381612ecb57612eca614350565b5b0492506008810190505b6127108310612efa576127108381612ef057612eef614350565b5b0492506004810190505b60648310612f1d5760648381612f1357612f12614350565b5b0492506002810190505b600a8310612f2c576001810190505b80915050919050565b6040518060a0016040528060008152602001600073ffffffffffffffffffffffffffffffffffffffff168152602001600073ffffffffffffffffffffffffffffffffffffffff168152602001600081526020016000151581525090565b6000604051905090565b600080fd5b600080fd5b60007fffffffff0000000000000000000000000000000000000000000000000000000082169050919050565b612fdb81612fa6565b8114612fe657600080fd5b50565b600081359050612ff881612fd2565b92915050565b60006020828403121561301457613013612f9c565b5b600061302284828501612fe9565b91505092915050565b60008115159050919050565b6130408161302b565b82525050565b600060208201905061305b6000830184613037565b92915050565b600081519050919050565b600082825260208201905092915050565b60005b8381101561309b578082015181840152602081019050613080565b60008484015250505050565b6000601f19601f8301169050919050565b60006130c382613061565b6130cd818561306c565b93506130dd81856020860161307d565b6130e6816130a7565b840191505092915050565b6000602082019050818103600083015261310b81846130b8565b905092915050565b6000819050919050565b61312681613113565b811461313157600080fd5b50565b6000813590506131438161311d565b92915050565b60006020828403121561315f5761315e612f9c565b5b600061316d84828501613134565b91505092915050565b600073ffffffffffffffffffffffffffffffffffffffff82169050919050565b60006131a182613176565b9050919050565b6131b181613196565b82525050565b60006020820190506131cc60008301846131a8565b92915050565b6131db81613196565b81146131e657600080fd5b50565b6000813590506131f8816131d2565b92915050565b6000806040838503121561321557613214612f9c565b5b6000613223858286016131e9565b925050602061323485828601613134565b9150509250929050565b600081519050919050565b600082825260208201905092915050565b6000819050602082019050919050565b61327381613113565b82525050565b600061328482613176565b9050919050565b61329481613279565b82525050565b6132a38161302b565b82525050565b60a0820160008201516132bf600085018261326a565b5060208201516132d2602085018261328b565b5060408201516132e5604085018261328b565b5060608201516132f8606085018261326a565b50608082015161330b608085018261329a565b50505050565b600061331d83836132a9565b60a08301905092915050565b6000602082019050919050565b60006133418261323e565b61334b8185613249565b93506133568361325a565b8060005b8381101561338757815161336e8882613311565b975061337983613329565b92505060018101905061335a565b5085935050505092915050565b600060208201905081810360008301526133ae8184613336565b905092915050565b6133bf81613113565b82525050565b60006020820190506133da60008301846133b6565b92915050565b6000806000606084860312156133f9576133f8612f9c565b5b6000613407868287016131e9565b9350506020613418868287016131e9565b925050604061342986828701613134565b9150509250925092565b60006020828403121561344957613448612f9c565b5b6000613457848285016131e9565b91505092915050565b600080fd5b600080fd5b7f4e487b7100000000000000000000000000000000000000000000000000000000600052604160045260246000fd5b6134a2826130a7565b810181811067ffffffffffffffff821117156134c1576134c061346a565b5b80604052505050565b60006134d4612f92565b90506134e08282613499565b919050565b600067ffffffffffffffff821115613500576134ff61346a565b5b613509826130a7565b9050602081019050919050565b82818337600083830152505050565b6000613538613533846134e5565b6134ca565b90508281526020810184848401111561355457613553613465565b5b61355f848285613516565b509392505050565b600082601f83011261357c5761357b613460565b5b813561358c848260208601613525565b91505092915050565b600080604083850312156135ac576135ab612f9c565b5b600083013567ffffffffffffffff8111156135ca576135c9612fa1565b5b6135d685828601613567565b92505060206135e785828601613134565b9150509250929050565b6000806040838503121561360857613607612f9c565b5b600061361685828601613134565b925050602061362785828601613134565b9150509250929050565b6000806000806080858703121561364b5761364a612f9c565b5b600061365987828801613134565b945050602061366a87828801613134565b935050604061367b87828801613134565b925050606061368c87828801613134565b91505092959194509250565b6136a181613279565b82525050565b60006020820190506136bc6000830184613698565b92915050565b6136cb8161302b565b81146136d657600080fd5b50565b6000813590506136e8816136c2565b92915050565b6000806040838503121561370557613704612f9c565b5b6000613713858286016131e9565b9250506020613724858286016136d9565b9150509250929050565b600067ffffffffffffffff8211156137495761374861346a565b5b613752826130a7565b9050602081019050919050565b600061377261376d8461372e565b6134ca565b90508281526020810184848401111561378e5761378d613465565b5b613799848285613516565b509392505050565b600082601f8301126137b6576137b5613460565b5b81356137c684826020860161375f565b91505092915050565b600080600080608085870312156137e9576137e8612f9c565b5b60006137f7878288016131e9565b9450506020613808878288016131e9565b935050604061381987828801613134565b925050606085013567ffffffffffffffff81111561383a57613839612fa1565b5b613846878288016137a1565b91505092959194509250565b6000806040838503121561386957613868612f9c565b5b6000613877858286016131e9565b9250506020613888858286016131e9565b9150509250929050565b7f4e487b7100000000000000000000000000000000000000000000000000000000600052602260045260246000fd5b600060028204905060018216806138d957607f821691505b6020821081036138ec576138eb613892565b5b50919050565b7f4e487b7100000000000000000000000000000000000000000000000000000000600052601160045260246000fd5b600061392c82613113565b915061393783613113565b925082820390508181111561394f5761394e6138f2565b5b92915050565b7f4e487b7100000000000000000000000000000000000000000000000000000000600052603260045260246000fd5b600061398f82613113565b91507fffffffffffffffffffffffffffffffffffffffffffffffffffffffffffffffff82036139c1576139c06138f2565b5b600182019050919050565b60006060820190506139e160008301866131a8565b6139ee60208301856133b6565b6139fb60408301846131a8565b949350505050565b7f4f6e6c79206f776e65722063616e206368616e676520746865206c697374696e60008201527f6720707269636500000000000000000000000000000000000000000000000000602082015250565b6000613a5f60278361306c565b9150613a6a82613a03565b604082019050919050565b60006020820190508181036000830152613a8e81613a52565b9050919050565b7f496e73756666696369656e742062616c616e6365000000000000000000000000600082015250565b6000613acb60148361306c565b9150613ad682613a95565b602082019050919050565b60006020820190508181036000830152613afa81613abe565b9050919050565b7f4f6e6c79206974656d206f776e65722063616e2072652d73656c6c0000000000600082015250565b6000613b37601b8361306c565b9150613b4282613b01565b602082019050919050565b60006020820190508181036000830152613b6681613b2a565b9050919050565b7f5072696365206d75737420626520657175616c20746f206c697374696e67207060008201527f7269636500000000000000000000000000000000000000000000000000000000602082015250565b6000613bc960248361306c565b9150613bd482613b6d565b604082019050919050565b60006020820190508181036000830152613bf881613bbc565b9050919050565b6000613c0a82613113565b915060008203613c1d57613c1c6138f2565b5b600182039050919050565b6000608082019050613c3d60008301876131a8565b613c4a60208301866133b6565b613c5760408301856133b6565b613c6460608301846133b6565b95945050505050565b7f526f79616c74792070657263656e74616765206d757374206265206c6573732060008201527f7468616e206f7220657175616c20746f20313030250000000000000000000000602082015250565b6000613cc960358361306c565b9150613cd482613c6d565b604082019050919050565b60006020820190508181036000830152613cf881613cbc565b9050919050565b6000819050919050565b6000819050919050565b6000613d2e613d29613d2484613cff565b613d09565b613113565b9050919050565b613d3e81613d13565b82525050565b6000606082019050613d5960008301866131a8565b613d6660208301856131a8565b613d736040830184613d35565b949350505050565b7f50726f76696465207468652061736b696e6720707269636520746f20636f6d7060008201527f6c65746520746865206f72646572000000000000000000000000000000000000602082015250565b6000613dd7602e8361306c565b9150613de282613d7b565b604082019050919050565b60006020820190508181036000830152613e0681613dca565b9050919050565b6000613e28613e23613e1e84613176565b613d09565b613176565b9050919050565b6000613e3a82613e0d565b9050919050565b6000613e4c82613e2f565b9050919050565b613e5c81613e41565b82525050565b6000606082019050613e776000830186613e53565b613e8460208301856131a8565b613e9160408301846133b6565b949350505050565b600081905092915050565b6000613eaf82613061565b613eb98185613e99565b9350613ec981856020860161307d565b80840191505092915050565b6000613ee18285613ea4565b9150613eed8284613ea4565b91508190509392505050565b60008190508160005260206000209050919050565b60006020601f8301049050919050565b600082821b905092915050565b600060088302613f5b7fffffffffffffffffffffffffffffffffffffffffffffffffffffffffffffffff82613f1e565b613f658683613f1e565b95508019841693508086168417925050509392505050565b6000613f98613f93613f8e84613113565b613d09565b613113565b9050919050565b6000819050919050565b613fb283613f7d565b613fc6613fbe82613f9f565b848454613f2b565b825550505050565b600090565b613fdb613fce565b613fe6818484613fa9565b505050565b5b8181101561400a57613fff600082613fd3565b600181019050613fec565b5050565b601f82111561404f5761402081613ef9565b61402984613f0e565b81016020851015614038578190505b61404c61404485613f0e565b830182613feb565b50505b505050565b600082821c905092915050565b600061407260001984600802614054565b1980831691505092915050565b600061408b8383614061565b9150826002028217905092915050565b6140a482613061565b67ffffffffffffffff8111156140bd576140bc61346a565b5b6140c782546138c1565b6140d282828561400e565b600060209050601f83116001811461410557600084156140f3578287015190505b6140fd858261407f565b865550614165565b601f19841661411386613ef9565b60005b8281101561413b57848901518255600182019150602085019450602081019050614116565b868310156141585784890151614154601f891682614061565b8355505b6001600288020188555050505b505050505050565b7f50726963652073686f756c642062652067726561746572207468616e207a657260008201527f6f00000000000000000000000000000000000000000000000000000000000000602082015250565b60006141c960218361306c565b91506141d48261416d565b604082019050919050565b600060208201905081810360008301526141f8816141bc565b9050919050565b600060808201905061421460008301876131a8565b61422160208301866131a8565b61422e60408301856133b6565b61423b6060830184613037565b95945050505050565b600081519050919050565b600082825260208201905092915050565b600061426b82614244565b614275818561424f565b935061428581856020860161307d565b61428e816130a7565b840191505092915050565b60006080820190506142ae60008301876131a8565b6142bb60208301866131a8565b6142c860408301856133b6565b81810360608301526142da8184614260565b905095945050505050565b6000815190506142f481612fd2565b92915050565b6000602082840312156143105761430f612f9c565b5b600061431e848285016142e5565b91505092915050565b600060408201905061433c60008301856131a8565b61434960208301846133b6565b9392505050565b7f4e487b7100000000000000000000000000000000000000000000000000000000600052601260045260246000fdfea26469706673582212208271ccf585bebb5888dcfbb83dcba5021e847aa027f5f2f8e2d3ce36435dd21264736f6c63430008180033",
  "linkReferences": {},
  "deployedLinkReferences": {}
}